:02000000062ACE
:1000080070082000A000803129082202031D0E2854
:100018002808210203181528A801A9010130AB00FE
:100028001828A80A0319A90A18309600FC30970066
:0800380011102008F00009007E
:1000400012001E00F003031D2028F103031D2028C9
:020050000800A6
:100052003B00AB012B122B17AB13AC01AE012E16DA
:10006200AE162E132E10AE10A901AA01A101A201F3
:100072004030A5001F30A600A030A3000F30A4001E
:04008200AF170800AC
:100086003B009B011B121B179B139C019E011E1616
:100096009E161E131E109E1099019A01910192013F
:1000A6008830950013309600C430930009309400D0
:0400B6009F17080088
:1000BA0021009913191799161916991199101910DF
:1000CA0022001D1023008C0121008C0122008C01CA
:0400DA008B0108008E
:1000DE003B00BB013B123B17BB13BC01BE013E16DE
:1000EE00BE163E133E10BE10B901BA01B101B201E7
:1000FE00C430B5000930B600E230B3000430B400AD
:04010E00BF1708000F
:10011200200091012100930111140B178B17080085
:10012200200098011816981618309600FC30970097
:06013200990118140800F9
:1001380039302000250784008230263D85000008DC
:10014800F1007108A400803071020318CD283930FD
:10015800250784008230263D85000008F1007108DB
:10016800A200A10101302507F0000030263DF10072
:100178003930700784008230713D85000008F00036
:100188007008A1040030A2040230A5070030A63D83
:10019800052AF0302405F1007108A3000F3024056A
:1001A800AA007108803A031DF728E4283B009B1336
:1001B800F2283B00AB13F2283B00BB13F228F228CD
:1001C80020002A08003A0319DA282A08013A0319F4
:1001D800DD282A08023A0319E028E3282000A50AA6
:1001E8000319A60A042A2308903A031DF3290130AB
:1001F800AB00DF2901302507F0000030263DF10073
:1002080039307007F6008230713DF70076088400B7
:10021800770885000008F300A830F4008430F50062
:100228007308F000F101F035F10D700874078400CF
:100238007108753D850000083B00950001310008F4
:10024800960076088400770885000008F300730894
:10025800F000F101F035F10D7008740784007108A1
:10026800753D85000008F30001310008F4007308AB
:10027800F0007408F100F136F00C70089300710872
:1002880094009F179B17ED29013020002507F000E7
:100298000030263DF10039307007F6008230713D9C
:1002A800F70076088400770885000008F300A83076
:1002B800F4008430F5007308F000F101F035F10D19
:1002C8007008740784007108753D850000083B00BC
:1002D800A50001310008A60076088400770885008B
:1002E8000008F3007308F000F101F035F10D700813
:1002F800740784007108753D85000008F30001311A
:100308000008F4007308F0007408F100F136F00CEE
:100318007008A3007108A400AF17AB17ED290130CE
:1003280020002507F0000030263DF1003930700725
:10033800F6008230713DF700760884007708850062
:100348000008F300A830F4008430F5007308F000CA
:10035800F101F035F10D7008740784007108753DDE
:10036800850000083B00B50001310008B60076089A
:100378008400770885000008F3007308F000F10195
:10038800F035F10D7008740784007108753D85001B
:100398000008F30001310008F4007308F000740845
:1003A800F100F136F00C7008B3007108B400BF1703
:1003B800BB17ED29ED2920002A08003A0319FE2869
:1003C8002A08013A031948292A08023A03199329E5
:1003D800DE2920000230A5070030A63D042A2308A4
:1003E800F03A031DF929A701052A2308E03A031D5D
:1003F800042AA501A601A801A901A101A201052AB3
:040408009C28080024
:10040C002000A101A201A301A401A501A601A7013D
:10041C00A801A901AA010130AB005D200330FB004B
:10042C000830FC007730FD00FD0B1A2AFC0B1A2A51
:10043C00FB0B1A2A432029206F2089200130200031
:10044C00A700912020002708013A031D332A2B080E
:10045C000319322A9C20AB01372A3B009B13AB13A8
:06046C00BB13282A382A08
:100472000034003490343B3401346034803490349E
:100482003B34013460349134443401346034813477
:100492009134423401346034813491344034013433
:1004A20060348134803490343B34043422348034D8
:1004B20090343B3401346034803490343B34013422
:1004C20060349134443401346034813491344234A0
:1004D20001346034813491344034013460348134E5
:1004E200803490343D3404342234803490343D34AA
:1004F20001346034803490343D34013460349134BA
:1005020045340134603481349134443401346034EC
:1005120081349134423401346034813480349034F3
:100522003F340534833491344734803490343F343B
:10053200013460348134913447340134603481347D
:10054200913445340134603481349134423401347D
:1005520060348134913444348034903440340434EF
:1005620022348134803490343B340134603480341A
:1005720090343B3401346034913444340134603477
:1005820081349134423401346034813491344034C2
:10059200013460348134803490343B340434223466
:1005A200803490343B3401346034803490343B34B2
:1005B20001346034913444340134603481349134F0
:1005C2004234013460348134913440340134603433
:1005D2008134803490343D34043422348034903475
:1005E2003D3401346034803490343D34013460341D
:1005F20091344534013460348134913444340134CB
:100602006034813491344234013460348134913421
:100612004734803490343F3401346034813491342F
:1006220047340134603481349134473401346034C6
:100632008134913447340134603481349134493403
:10064200803490343F3401346034813491344734FF
:10065200013460348134913445340134603481345E
:1006620091344234013460348134803490344034E3
:100672000234C1349134473480340234C134813479
:1006820090344434913440340134603480349034B2
:1006920044340134603480349034443481349134AD
:1006A2003B340234C1348034903444348134913444
:1006B2004034013460348034903444340134603442
:1006C200803490344434813491343B340234C13424
:1006D2008034903444348134913440340134603471
:1006E2008034903447340134603480349034403460
:1006F2008034813490343B34013460349134423458
:100702000134603481349134443480349034403440
:100712000234C134803490343B340234C1348134E5
:1007220091344534803490343F3401346034813420
:100732009134453401346034813491344534803409
:1007420090343B3401346034813491344534013483
:1007520060348134913445348034903440340134EF
:1007620060349234443400340634813401344834E1
:1007720082340034113491344434803490343B3424
:10078200013460348134913444340134603481342E
:1007920091344434803490343A34013460349234A5
:1007A2004234003406348134013448348234003413
:1007B20011349134423401346034813491344434FC
:1007C20001346034813491344234803490343B3487
:1007D2000234C1348134913447340234C134813417
:1007E2009134443480349034403401346034813460
:1007F200913444340134603481349134443480344B
:1008020090343B340234C1348134913444348034E2
:1008120090344034013460348134913444340134AE
:100822006034813491344434803490343B34023423
:10083200C1348134913444348034903440340134AE
:1008420060348134913447340134603481349134DA
:1008520040348034813490343B34013460349134F8
:1008620042340134603481349134443480349034DD
:1008720040340234C134803490343B340234C134C5
:10088200813491344534803490343F3401346034BF
:1008920081349134453401346034813491344534A7
:1008A200803490343B3401346034813491344534A3
:1008B200013460348134913445348034903440348E
:1008C20001346034923444340034063481340134C7
:1008D20048348234003411349134443480349034B6
:1008E2003B34013460348134913444340134603413
:1008F200813491344734803490343B340134603451
:10090200813491344734803490343B340134603440
:10091200813491344534803490343D340134603430
:1009220092344234803490343F340034063481347B
:1009320001344834823400341134913440348034E8
:0E094200903440340434223480348134F03454
:10095000E534EE347C34E134D434D434E234C83475
:100960009C34BD34F834B234EC34A83471349F3440
:100970007E3496340C348E34133486348D347E3485
:1009800073347734BE3470346A346A347134643406
:10099000CE345E347C34593476345434B9344F34E4
:1009A0003F344B34063447340A34433447343F34FD
:1009B000BA343B345F343834353435343934323436
:1009C00067342F34BE342C343B342A34DD3427349E
:1009D000A03425348334233485342134A4341F34A3
:1009E000DD341D3430341C349B341A341D34193436
:1009F000B43417345F3416341E341534EF341334E2
:100A0000D0341234C2341134C3341034D2340F34DD
:100A1000EF340E3418340E344E340D348F340C341D
:100A2000DA340B3430340B348F340A34F83409346C
:100A300068340934E134083462340834E934073462
:100A4000783407340C340734A73406344834063479
:100A5000ED3405349834053448340534FC3404341A
:100A6000B43404347134043431340434F53403348C
:100A7000BC34033486340334543403342434033410
:100A8000F7340234CC340234A43402347E340234D9
:100A90005A3402343934023419340234FB34013408
:100AA000DE340134C3340134AA34013492340134C5
:100AB0007C34013466340134523401343F3401341F
:100AC0002D3401341D3401340D340134FE3400342E
:100AD000EF340034E2340034D5340034C934003407
:100AE000BE340034B3340034A9340034A0340034AC
:100AF000973400348F340034873400347F3400342A
:100B000078340034713400346B340034653400348C
:100B10005F3400345A3400345534003450340034D7
:100B20004C3400344834003444340034403400340D
:100B30003C34003439340034363400343334003437
:100B4000303400342D3400342B340034003400347D
:020000040001F9
:04000E00A00E031F1E
:00000001FF
